:020000040800F2
:10000000180600209D0100084F100008A90F0008E5
:100010004D100008CD020008811500080000000006
:100020000000000000000000000000007310000845
:10003000CF020008000000007110000875100008D1
:10004000B7010008B7010008B7010008B7010008B0
:10005000B7010008B7010008B7010008B7010008A0
:10006000B7010008B7010008B7010008B701000890
:10007000B7010008B7010008B7010008B701000880
:10008000B7010008B7010008B7010008B701000870
:10009000B7010008B7010008B7010008B701000860
:1000A000B7010008B7010008B7010008B701000850
:1000B000B7010008B7010008B7010008B701000840
:1000C000B7010008B7010008B7010008B701000830
:1000D000B7010008B701000869150008B70100085A
:1000E000B7010008B7010008B7010008B701000810
:1000F000B7010008B7010008B7010008B701000800
:10010000B7010008B7010008B7010008B7010008EF
:10011000B7010008B7010008B7010008B7010008DF
:10012000B7010008B7010008B7010008B7010008CF
:10013000B7010008B7010008B7010008B7010008BF
:10014000B7010008B7010008B7010008B7010008AF
:10015000B7010008B7010008B701000875150008CD
:10016000B7010008B7010008B7010008B70100088F
:10017000B7010008B7010008B7010008000000003F
:10018000B7010008B7010008DFF80CD000F08CF8C8
:10019000004800470116000818060020064880475E
:1001A00006480047FEE7FEE7FEE7FEE7FEE7FEE75C
:1001B000FEE7FEE7FEE7FEE7E91000088901000818
:1001C0002DE9F05F0546002092469B46884606468C
:1001D000814640241BE0284641464746224600F01F
:1001E00053F853465A46C01A914110D31146184647
:1001F000224600F03AF82D1A67EB01084F462246D6
:100200000120002100F031F817EB00094E41201EBB
:10021000A4F10104DFDC484631462A464346BDE8E6
:10022000F09FD2B201E000F8012B491EFBD27047CB
:100230000022F6E710B513460A4604461946FFF7B2
:10024000F0FF204610BD30B505462A460B4612F891
:10025000010B13F8014B08B1A042F8D01CB10028E3
:1002600002D06D1CF1E7284630BD202A04DB203A7D
:1002700000FA02F1002070479140C2F1200320FAF9
:1002800003F3194390407047202A04DB203A21FAF7
:1002900002F00021704721FA02F3D040C2F120029F
:1002A0009140084319467047064C074D06E0E06848
:1002B00040F0010394E8070098471034AC42F6D3AD
:1002C000FFF766FF84160008A4160008FEE77047D3
:1002D00090F83510022903D0802141650120704734
:1002E000052180F835100068016821F001010160E6
:1002F0000020704770B5044600F0ECF80546601C1D
:1003000002D004480078044400F0E4F8401BA04206
:10031000FAD370BD100000202DE9F84FDFF87CB152
:1003200000224FF001084FF0030A4FF00F090BF1C4
:10033000040E00BF0B6808FA02F42340A3426ED1FA
:100340004D68022D01D0122D0ED1D50800EB850C81
:10035000DCF820505607F70E09FA07F6B5430E6988
:10036000BE402E43CCF82060066855000F790AFA8B
:1003700005FC07F0030726EA0C06AF403743076089
:100380004E68012E05D0022E03D0112E01D0122E60
:100390000ED18668CF6826EA0C06AF4037438760E7
:1003A0004668A6430C79C4F3001494403443446077
:1003B000C6688C6826EA0C06AC403443C4604C68BE
:1003C000E40065D5364C256845F4804525602468F1
:1003D00022F0030504F480440094324C2E19D6F820
:1003E000084895072F0F09FA07F5AC432E4DA84290
:1003F00001D1002524E02D4DA84201D101251FE0A7
:100400002B4DA84201D102251AE02A4DA84201D164
:10041000032515E0284DA84202D1042510E037E05D
:10042000264DA84201D105250AE0254DA84201D15B
:10043000062505E0234DA84201D1072500E0082547
:10044000BD402543C6F80858DBF800405D464E68BD
:100450009C43F60300D51C432C60DEF80040754633
:100460004E689C43B60300D51C432C600B4D0835E9
:100470002C684E689C43F60200D51C432C60074D47
:100480000C352C684E689C43B60200D51C432C608A
:10049000521C102AFFF44EAFBDE8F88F003C01401B
:1004A0004438024000300140000002400004024095
:1004B00000080240000C02400010024000140240FC
:1004C00000180240001C02400AB181617047090413
:1004D000FBE7000001488068704700001000002022
:1004E0000248816802781144816070471000002042
:1004F0000B4810B5016841F400710160016841F4D6
:1005000080610160016841F480710160032000F0A6
:100510006DF8002000F006F800F024F8002010BD6F
:10052000003C024070B50D4D04464FF47A712878B6
:10053000B1FBF0F00A490968B1FBF0F000F0E0FA15
:1005400048B9102C07D200222146501E00F02EF888
:1005500000206C6070BD012070BD00001000002004
:100560001C0000200A4808B5016841F48041016080
:10057000006800F4804000900548001F016841F0C9
:1005800080510160006800F08050009008BD0000BC
:100590004438024000F01F020121914040098000D0
:1005A00000F1E020C0F8001170470000F0B40E4BDD
:1005B0001B680C46C3F30223C3F10705042D00D9C1
:1005C0000425191D072901D2002300E0DB1E0126A6
:1005D00006FA05F1491E214099409E40761E1640BC
:1005E0003143F0BC00F034BD0CED00E0064900F0F2
:1005F000070208684FF6FF03184040EA0220034A4A
:1006000010430860704700000CED00E00000FA05A0
:100610002DE9F0470E46050065D0DFF81481D8F8C3
:100620000000F7B200F00F00B04207D288F8007067
:10063000D8F8000000F00F00B04254D128683D4CBB
:10064000810712D5400703D5206840F4E0502060B0
:100650002878000703D5206840F4604020602068B7
:10066000A96820F0F000084320602878C0072DD04A
:10067000304968680839012812D0022813D00328AD
:1006800011D00968890700292DDA216821F00301BA
:1006900001432160FFF71EFF814641F2883A0EE0D8
:1006A00009688903EFE709688901ECE7FFF712FFA2
:1006B000A0EB0901514502D90320BDE8F08720686D
:1006C000696800F00C00B0EB810FEFD1D8F8001092
:1006D000404601F00F01B14207D90770006800F0F1
:1006E0000F00B04201D00120E7E72878400705D588
:1006F0002068E96820F4E05008432060287800076B
:1007000006D52068296920F4604040EAC1002060D5
:1007100000F036F82168084AC1F30311515CC84063
:10072000064908600020FFF7FDFE0020C5E7000035
:10073000003C0240083802406C1600081C000020F3
:100740000448054900680968044AC1F38221515CE4
:10075000C84070471C000020083802407C16000882
:100760000448054900680968044AC1F34231515CF4
:10077000C84070471C000020083802407C16000862
:10078000154810B5006810F00C02144813D0144935
:10079000042A0FD0082A0ED10F4C241F2268236888
:1007A00002F03F025B0207D52068C0F38810A0FB6F
:1007B000010106E0084610BD2168C1F38811A1FBC4
:1007C00000010023FFF7FCFC2168C1F30141491C33
:1007D0004900B0FBF1F010BD083802400024F400DD
:1007E00040787D012DE9F84F050076D02878DFF8B4
:1007F000F8B2BE4CC00749D0DBF800105846C1F330
:100800008101012908D00068C0F3810002280AD1C3
:10081000201D0068400206D52068800336D5686830
:100820000028E2D032E06868B0F5803F10D0B0F523
:10083000A02F206810D020F480302060206820F4A1
:10084000802020606868A0B1FFF744FE06460CE0F7
:10085000206840F48030F4E740F480202060F7E71F
:10086000FFF738FE801B642873D820688003F7D513
:100870000CE0FFF72FFE064605E000BFFFF72AFE5B
:10088000801B6428F0D820688003F7D42878DFF82C
:10089000608280074FF000093ED5DBF80010584613
:1008A00011F00C0F09D00068C0F3810002280BD1B1
:1008B0008D48001F0068400206D42068800715D5C7
:1008C000E868012809D111E0E868B8B10120C8F84A
:1008D0000000FFF7FFFD064605E002E1FFF7FAFD25
:1008E000801B0228C0D820688007F7D520682969B6
:1008F00020F0F80040EAC10020600DE0C8F8009048
:10090000FFF7E8FD064604E0FFF7E4FD801B022840
:100910001FD820688007F7D42878000722D5724EA8
:10092000744869696C3671B101210160FFF7D2FD2D
:10093000074604E0FFF7CEFDC01B022809D8306847
:100940008007F7D50EE0C0F80090FFF7C3FD07461B
:1009500005E083E0FFF7BEFDC01B02287ED83068AB
:100960008007F7D42878400768D5DFF87CA10027F6
:100970000AF1380ADAF80000C0000BD4DAF80010E7
:1009800041F08051CAF80010DAF80000012700F0A9
:1009900080500090584E3068C00510D4306840F444
:1009A00080703060FFF796FD009005E0FFF792FD44
:1009B0000099401A022851D83068C005F6D54A4E31
:1009C000A868683601280FD00528306810D020F0BC
:1009D00001003060306820F004003060A868B8B1D1
:1009E000FFF778FD00900FE0306840F00100F4E779
:1009F00040F004003060F7E7FFF76CFD0099411A02
:100A000041F28830814264D830688007F4D50EE026
:100A1000FFF760FD009007E0FFF75CFD0099411AC9
:100A200041F28830814254D830688007F4D42FB125
:100A3000DAF8001021F08051CAF80010A869C0B39C
:100A4000DBF80010C1F3810102294AD00228484690
:100A500007D0C8F86000FFF73DFD00E039E005462B
:100A60003AE04746C8F86000FFF734FD064604E068
:100A7000FFF730FD801B02282BD820688001F7D4B7
:100A8000D5E907010843A96A1C4A490802EB01415C
:100A90006A6A41EA8211084395F82C1040EA016124
:100AA0001148001F016001203866FFF713FD05465D
:100AB00005E014E0FFF70EFD401B022809D820686E
:100AC0008001F7D50BE000BFFFF704FD401B0228B3
:100AD00002D90320BDE8F88F20688001F4D40020FB
:100AE000F8E70120F6E7000008380240003802402D
:100AF00000004742800E4742007000400000FFFFA8
:100B000010B5401EB0F1807F01D3012010BD4FF021
:100B1000E02460610F21601700F09AFA0020A061C4
:100B200007202061002010BD7047000070B50268EA
:100B300004461068D168536910F00F0F50D003F0CD
:100B4000010501F4907635435DD0C20705D0CA0592
:100B500003D5E26B42F00102E263420705D5DA07F2
:100B600003D0E26B42F00202E263820705D5DA07A6
:100B700003D0E26B42F00402E263020705D5DA0714
:100B800003D0E26B42F00802E263E26B002A33D04A
:100B9000800604D5880602D5204600F0E5FA2068D4
:100BA0004069E16BC0F38010090700D428B32046E8
:100BB00000F0CCFA2068416949061AD5416921F054
:100BC00040014161606BA0B11B490165606BFFF79B
:100BD0007FFB002810D0606B016DBDE870400847B6
:100BE000830610D58B060ED52046BDE8704000F078
:100BF000BBBA2046FFF798FF70BD2046FFF794FF71
:100C00000020E06370BD030606D50B0604D5204620
:100C1000BDE8704000F044BC4006F3D54806F1D56D
:100C2000D168204621F04001D160202184F839109C
:100C300000F0B9F970BD00003D11000870B5040066
:100C400004D094F83900002510B106E0012070BDF1
:100C500084F83850204600F023F8242084F8390026
:100C60002068C16821F40051C160204600F0C2FA3A
:100C70002068016921F4904101612068416921F0F7
:100C80002A0141612068C16841F40051C160E563F7
:100C9000202084F8390084F83A00002070BD00005C
:100CA00030B587B0044614216846FFF7C1FA294DD4
:100CB00021682948022201230324A94221D126497F
:100CC00010310D6845F400350D60096801F40031FC
:100CD0000591016841F0010101600068694600F07A
:100CE000010005900C208DE81D00072004901B4892
:100CF000FFF712FB002211462620FFF757FC2620A3
:100D000023E0174DA94222D1134914310D6845F053
:100D100020050D60096801F020010591016841F08E
:100D2000040101600068694600F004000590C020DD
:100D30008DE81D00082004900A48FFF7EDFA002214
:100D400011464720FFF732FC4720FFF723FC07B08E
:100D500030BD000000440040303802400000024036
:100D6000001401400008024090F83A30202B1DD1B9
:100D7000D1B1CAB190F83830012B17D08162828589
:100D8000C2850021C163222280F83A2080F8381001
:100D900001684A6942F001024A610068C16841F491
:100DA0009071C16000207047012070470220704799
:100DB00070B54A4906460A200870494930680968F2
:100DC00088427DD14648454C4030A41E0178A0F5AC
:100DD000987520782954401CC0B22070284410F81F
:100DE000021C0D2971D110F8010C0A286DD13DA10A
:100DF0002846FFF728FA00285DD00720607004F12C
:100E00000801C0B20B182A5C401CC0B203F8072CC2
:100E100060700F28F5D31420314960705A39C0B280
:100E20000B182A5C401CC0B203F8142C60701F28F9
:100E3000F5D320202A4960704F39C0B20B182A5CC4
:100E4000401CC0B203F8202C60702C28F5D3234935
:100E5000234864230622891D403800F047F82048C3
:100E6000642301221D49403800F040F81C496423E6
:100E70005A390B2201F11A0000F038F8184864239F
:100E800001221649403800F031F8154964234F39E2
:100E90000C2201F10F0000F029F81148642301220F
:100EA0000E49403800F022F80D48642301220B4916
:100EB000403800F01BF8002020709621084801E01F
:100EC0000BE002E0F038FFF7B3F93046BDE87040C0
:100ED000034901224031FFF747BF70BD02000020E7
:100EE00010010020244750524D4300002DE9F843E3
:100EF000044690F839001F4616460D46202850D16A
:100F0000A5B19EB194F8380001284AD0012084F898
:100F100038004FF00008C4F83C80212084F83900E4
:100F2000FFF7D8FAA6848146E68426E00120BDE8D2
:100F3000F883E08C401EE084A0684B46B0F5805FEB
:100F40004FF000024FF080012046009703D000F0E0
:100F5000D8FAE8B90DE000F0D4FAC8B928882168B9
:100F6000C0F308004860206908B16D1C05E0AD1CA5
:100F700003E0216815F8010B4860E08C0028D8D107
:100F80004B46002240212046009700F0BAFA08B1F3
:100F90000320CCE7202084F8390084F83880002032
:100FA000C5E70220C3E77047FEE70000F0B587B051
:100FB00014216846FFF73CF921480024016841F0FC
:100FC00010010160016801F010010591016841F014
:100FD00001010160016801F001010591016841F022
:100FE00002010160016801F002010591016841F010
:100FF000040101600068134E00F004000590002217
:1010000010213046FFF760FA0F4F002202213846C8
:10101000FFF75AFA102000900125CDE901546946E6
:1010200030460394FFF778F902200090CDE901548F
:10103000694638460394FFF76FF907B0F0BD00002A
:10104000303802400010024000040240FEE77047C2
:101050000907090E002806DA00F00F0000F1E02071
:1010600080F8141D704700F1E02080F800147047EC
:1010700070477047FFF734BA10B592B03021684618
:10108000FFF7D6F814210CA8FFF7D2F81448002473
:10109000016841F080510160006800F080501190BB
:1010A0001048016841F4804101600068069400F432
:1010B00080401190022000900120039010200490A5
:1010C0006846FFF78FFB0F20CDE90C040E940F94B8
:1010D00000210CA81094FFF79BFA12B010BD00007D
:1010E00040380240007000401048016841F470012F
:1010F00001600F48016841F0010101600C4A0021C4
:101100000832116002680B4B1A400260031D0A4A44
:101110001A60026822F48022026005480C300160E7
:1011200002495806803908607047000088ED00E0E9
:1011300000380240FFFFF6FE1030002410B5806B2F
:101140000021C185C184FFF7EFFC10BD0168CA68AA
:1011500022F49072CA6001684A6922F001024A6171
:10116000202180F83A10704710B590F83A102229E3
:1011700001D0022010BD8168B1F5805F11D00169F6
:10118000002901681FD0496801F07F03816A4A1C69
:1011900082620B70C18D491E0904090CC18518D0EB
:1011A00026E00269816A002A0268526805D0D2B23C
:1011B0000A80816A491C8162ECE7C2F308020A8056
:1011C000816A891CF7E74A68816A4B1C83620A704E
:1011D000E0E70168CA6822F49072CA6001684A694F
:1011E00022F001024A61202180F83A10FFF7E0FD69
:1011F000002010BD2DE9F04104460068016921F48A
:101200004052E168114301612168C86849F20C62EB
:1012100090432369A268E5691A4363692B431A4323
:101220000243CA602168486920F44072A0691043F3
:101230004861E1696425B1F5004F9748974A2168F4
:101240004FF032083FD0914201D081427CD1FFF76C
:1012500087FA00EBC00101EB001061688900B0FB68
:10126000F1F6FFF77DFA00EBC00101EB00106168B9
:101270008900B0FBF1F0B0FBF5F06FF018014843C6
:1012800006EB800108EB0110B0FBF5F000F0F00672
:10129000FFF766FA00EBC00101EB001061688900FE
:1012A000B0FBF1F0B0FBF5F006EB0016FFF758FAD3
:1012B00000EBC00101EB001061688900B0FBF1F7A1
:1012C000FFF74EFAD2E0914201D081423DD1FFF7C3
:1012D00047FA00EBC00101EB001061684900B0FB68
:1012E000F1F0B0FBF5F00601FFF73AFA00EBC001B0
:1012F00001EB001061684900B0FBF1F7FFF730FA2D
:1013000000EBC00101EB001061684900B0FBF1F097
:10131000B0FBF5F06FF01801484307EB800108EBD4
:10132000C100B0FBF5F000F0F80006EB4006FFF757
:1013300017FA00EBC00101EB001061684900B0FB37
:10134000F1F7FFF70DFA3CE055E0FFF7F9F900EB94
:10135000C00101EB001061684900B0FBF1F0B0FB87
:10136000F5F00601FFF7ECF900EBC00101EB00100E
:1013700061684900B0FBF1F7FFF7E2F900EBC0014B
:1013800001EB001061684900B0FBF1F0B0FBF5F033
:101390006FF01801484307EB800108EBC100B0FB78
:1013A000F5F000F0F80006EB4006FFF7C9F900EB96
:1013B000C00101EB001061684900B0FBF1F7FFF7D5
:1013C000BFF900EBC00101EB001061684900B0FB00
:1013D000F1F0B0FBF5F06FF01801484307EB800126
:1013E00008EBC100B0FBF5F000F0070021683044C5
:1013F0008860BDE8F081FFF7A3F900EBC00101EBC5
:10140000001061688900B0FBF1F6FFF799F900EB75
:10141000C00101EB001061688900B0FBF1F0B0FB86
:10142000F5F06FF01801484306EB800108EB01105E
:10143000B0FBF5F000F0F006FFF782F900EBC00119
:1014400001EB001061688900B0FBF1F0B0FBF5F032
:1014500006EB0016FFF774F900EBC00101EB00107A
:1014600061688900B0FBF1F7FFF76AF900EBC00192
:1014700001EB001061688900B0FBF1F0B0FBF5F002
:101480006FF01801484307EB800108EB0110B0FB37
:10149000F5F000F00F00A9E7001401400010014032
:1014A00090F83910212901D0022070478168B1F5E8
:1014B000805F016A0BD04A1C0262026809785160A1
:1014C000C18C491E0904090CC1840ED017E009889B
:1014D0000268C1F30801516001690029016A02D064
:1014E000491C0162ECE7891CFBE70168CA6822F02D
:1014F0008002CA600068C16841F04001C1600020FC
:1015000070472DE9F041984617460E460446069D61
:101510001DE0681C1BD02DB1FEF7DCFFA0EB08001E
:10152000A84214D92068C16821F4D071C160206834
:10153000416921F001014161202084F8390084F8DB
:101540003A00002084F838000320BDE8F0812068CC
:10155000006836EA000004D00020B842D9D000204C
:10156000F3E70120F9E700000148FFF7DFBA0000C8
:10157000D00000200148FFF7D9BA00001001002078
:10158000FEE702E008C8121F08C1002AFAD170471E
:101590007047002001E001C1121F002AFBD17047F3
:1015A00010B5154C012210212046FEF78DFF4FF497
:1015B0009670FEF79FFE002210212046FEF784FF62
:1015C0000E4C002202212046FEF77EFF6420FEF72B
:1015D00091FE012202212046FEF776FF41F288307B
:1015E000FEF788FE002202212046FEF76DFFBDE8CF
:1015F00010406420FEF77EBE00100240000402404E
:10160000FEF776FFFFF7CCFFFFF736FDFFF7CEFCC6
:1016100014481349002401604FF4E131C0E901147A
:101620000C25C460C0E904458461C461FFF706FB72
:101630000C480D49403001604FF49651C0E9011447
:10164000C460C0E904458461C461FFF7F7FA054945
:10165000C8228031A1F14000FFF786FBFEE70000C1
:1016600000440040D00000200014014000000000B1
:101670000000000001020304060708090000000042
:1016800001020304A416000800000020200000004E
:1016900082150008C416000820000020F80500008C
:1016A000921500080000000000000000000000008B
:1016B0000000000001000000100000000000000019
:0416C0000024F4000E
:040000050800018965
:00000001FF
