:020000040800F2
:10000000A80400209D010008570F0008610E000899
:10001000550F0008A9020008851300080000000021
:100020000000000000000000000000000F100008A9
:10003000AB02000800000000590F00081110000872
:10004000B7010008B7010008B7010008B7010008B0
:10005000B7010008B7010008B7010008B7010008A0
:10006000B7010008B7010008B7010008B701000890
:10007000B7010008B7010008B7010008B701000880
:10008000B7010008B7010008B7010008B701000870
:10009000B7010008B7010008B7010008B701000860
:1000A000B7010008B7010008B7010008B701000850
:1000B000B7010008B7010008B7010008B701000840
:1000C000B7010008B7010008B7010008B701000830
:1000D000B7010008B7010008B7010008B701000820
:1000E000B7010008B7010008B7010008B701000810
:1000F000B7010008B7010008B7010008B701000800
:10010000B7010008B7010008B7010008B7010008EF
:10011000B7010008B7010008B7010008B7010008DF
:10012000B7010008B7010008B7010008B7010008CF
:10013000B7010008B7010008B7010008B7010008BF
:10014000B7010008B7010008B7010008B7010008AF
:10015000B7010008B7010008B7010008B70100089F
:10016000B7010008B7010008B7010008B70100088F
:10017000B7010008B7010008B7010008000000003F
:10018000B7010008B7010008DFF80CD000F07AF8DA
:1001900000480047C5130008A8040020064880470F
:1001A00006480047FEE7FEE7FEE7FEE7FEE7FEE75C
:1001B000FEE7FEE7FEE7FEE785100008890100087C
:1001C0002DE9F05F0546002092469B46884606468C
:1001D000814640241BE0284641464746224600F01F
:1001E00041F853465A46C01A914110D31146184659
:1001F000224600F028F82D1A67EB01084F462246E8
:100200000120002100F01FF817EB00094E41201ECD
:10021000A4F10104DFDC484631462A464346BDE8E6
:10022000F09FD2B201E000F8012B491EFBD27047CB
:100230000022F6E710B513460A4604461946FFF7B2
:10024000F0FF204610BD202A04DB203A00FA02F11C
:10025000002070479140C2F1200320FA03F31943B4
:1002600090407047202A04DB203A21FA02F0002156
:10027000704721FA02F3D040C2F1200291400843B6
:1002800019467047064C074D06E0E06840F0010350
:1002900094E8070098471034AC42F6D3FFF778FF94
:1002A0007014000890140008FEE7704770B504460B
:1002B00000F0ECF80546601C02D0044800780444C5
:1002C00000F0E4F8401BA042FAD370BD000000200B
:1002D0002DE9F84FDFF87CB100224FF001084FF014
:1002E000030A4FF00F090BF1040E00BF0B6808FA68
:1002F00002F42340A3426ED14D68022D01D0122D8D
:100300000ED1D50800EB850CDCF820505607F70E0F
:1003100009FA07F6B5430E69BE402E43CCF82060BB
:10032000066855000F790AFA05FC07F0030726EA6C
:100330000C06AF40374307604E68012E05D0022EF1
:1003400003D0112E01D0122E0ED18668CF6826EA76
:100350000C06AF40374387604668A6430C79C4F368
:100360000014944034434460C6688C6826EA0C0646
:10037000AC403443C4604C68E40065D5364C256815
:1003800045F480452560246822F0030504F4804488
:100390000094324C2E19D6F8084895072F0F09FA09
:1003A00007F5AC432E4DA84201D1002524E02D4D88
:1003B000A84201D101251FE02B4DA84201D1022501
:1003C0001AE02A4DA84201D1032515E0284DA84284
:1003D00002D1042510E037E0264DA84201D10525C1
:1003E0000AE0254DA84201D1062505E0234DA8428B
:1003F00001D1072500E00825BD402543C6F808586F
:10040000DBF800405D464E689C43F60300D51C4374
:100410002C60DEF8004075464E689C43B60300D55C
:100420001C432C600B4D08352C684E689C43F6022B
:1004300000D51C432C60074D0C352C684E689C433E
:10044000B60200D51C432C60521C102AFFF44EAF9C
:10045000BDE8F88F003C01404438024000300140C4
:10046000000002400004024000080240000C02406C
:10047000001002400014024000180240001C02401C
:100480000AB1816170470904FBE7000001488068F8
:100490007047000000000020024881680278114483
:1004A00081607047000000200B4810B5016841F4DE
:1004B00000710160016841F480610160016841F4EC
:1004C00080710160032000F061F8002000F006F860
:1004D00000F024F8002010BD003C024070B50D4D26
:1004E00004464FF47A712878B1FBF0F00A490968A4
:1004F000B1FBF0F000F03BFC48B9102C07D2002211
:100500002146501E00F022F800206C6070BD0120D2
:1005100070BD0000000000200C0000200A4808B553
:10052000016841F480410160006800F4804000905F
:100530000548001F016841F080510160006800F02B
:100540008050009008BD000044380240F0B40E4BCB
:100550001B680C46C3F30223C3F10705042D00D921
:100560000425191D072901D2002300E0DB1E012606
:1005700006FA05F1491E214099409E40761E16401C
:100580003143F0BC00F0FFBE0CED00E0064900F086
:10059000070208684FF6FF03184040EA0220034AAA
:1005A00010430860704700000CED00E00000FA0501
:1005B0002DE9F0470E46050065D0DFF81481D8F824
:1005C0000000F7B200F00F00B04207D288F80070C8
:1005D000D8F8000000F00F00B04254D128683D4C1C
:1005E000810712D5400703D5206840F4E050206011
:1005F0002878000703D5206840F460402060206818
:10060000A96820F0F000084320602878C0072DD0AA
:10061000304968680839012812D0022813D003280D
:1006200011D00968890700292DDA216821F003011A
:1006300001432160FFF72AFF814641F2883A0EE02C
:1006400009688903EFE709688901ECE7FFF71EFFF6
:10065000A0EB0901514502D90320BDE8F0872068CD
:10066000696800F00C00B0EB810FEFD1D8F80010F2
:10067000404601F00F01B14207D90770006800F051
:100680000F00B04201D00120E7E72878400705D5E8
:100690002068E96820F4E0500843206028780007CB
:1006A00006D52068296920F4604040EAC100206036
:1006B00000F036F82168084AC1F30311515CC840C4
:1006C000064908600020FFF709FF0020C5E7000089
:1006D000003C024008380240581400080C0000207A
:1006E0000448054900680968044AC1F38221515C45
:1006F000C84070470C000020083802406814000809
:100700000448054900680968044AC1F34231515C54
:10071000C84070470C0000200838024068140008E8
:10072000154810B5006810F00C02144813D0144995
:10073000042A0FD0082A0ED10F4C241F22682368E8
:1007400002F03F025B0207D52068C0F38810A0FBCF
:10075000010106E0084610BD2168C1F38811A1FB24
:1007600000010023FFF72CFD2168C1F30141491C62
:100770004900B0FBF1F010BD083802400024F4003D
:1007800040787D012DE9F84F050076D02878DFF814
:10079000F8B2BE4CC00749D0DBF800105846C1F390
:1007A0008101012908D00068C0F3810002280AD124
:1007B000201D0068400206D52068800336D5686891
:1007C0000028E2D032E06868B0F5803F10D0B0F584
:1007D000A02F206810D020F480302060206820F402
:1007E000802020606868A0B1FFF750FE06460CE04C
:1007F000206840F48030F4E740F480202060F7E780
:10080000FFF744FE801B642873D820688003F7D567
:100810000CE0FFF73BFE064605E000BFFFF736FEA3
:10082000801B6428F0D820688003F7D42878DFF88C
:10083000608280074FF000093ED5DBF80010584673
:1008400011F00C0F09D00068C0F3810002280BD111
:100850008D48001F0068400206D42068800715D527
:10086000E868012809D111E0E868B8B10120C8F8AA
:100870000000FFF70BFE064605E002E1FFF706FE6B
:10088000801B0228C0D820688007F7D52068296916
:1008900020F0F80040EAC10020600DE0C8F80090A8
:1008A000FFF7F4FD064604E0FFF7F0FD801B022889
:1008B0001FD820688007F7D42878000722D5724E09
:1008C000744869696C3671B101210160FFF7DEFD82
:1008D000074604E0FFF7DAFDC01B022809D830689C
:1008E0008007F7D50EE0C0F80090FFF7CFFD074670
:1008F00005E083E0FFF7CAFDC01B02287ED8306800
:100900008007F7D42878400768D5DFF87CA1002756
:100910000AF1380ADAF80000C0000BD4DAF8001047
:1009200041F08051CAF80010DAF80000012700F009
:1009300080500090584E3068C00510D4306840F4A4
:1009400080703060FFF7A2FD009005E0FFF79EFD8C
:100950000099401A022851D83068C005F6D54A4E91
:10096000A868683601280FD00528306810D020F01C
:1009700001003060306820F004003060A868B8B131
:10098000FFF784FD00900FE0306840F00100F4E7CD
:1009900040F004003060F7E7FFF778FD0099411A56
:1009A00041F28830814264D830688007F4D50EE087
:1009B000FFF76CFD009007E0FFF768FD0099411A12
:1009C00041F28830814254D830688007F4D42FB186
:1009D000DAF8001021F08051CAF80010A869C0B3FD
:1009E000DBF80010C1F3810102294AD002284846F1
:1009F00007D0C8F86000FFF749FD00E039E0054680
:100A00003AE04746C8F86000FFF740FD064604E0BC
:100A1000FFF73CFD801B02282BD820688001F7D40B
:100A2000D5E907010843A96A1C4A490802EB0141BC
:100A30006A6A41EA8211084395F82C1040EA016184
:100A40001148001F016001203866FFF71FFD0546B1
:100A500005E014E0FFF71AFD401B022809D82068C2
:100A60008001F7D50BE000BFFFF710FD401B022807
:100A700002D90320BDE8F88F20688001F4D400205B
:100A8000F8E70120F6E7000008380240003802408D
:100A900000004742800E4742007000400000FFFF08
:100AA00070B5040005D00025A56294F8510010B17E
:100AB00006E0012070BD84F85050204600F030F868
:100AC000022084F851002068016821F04001016093
:100AD000D4E901010843D4E90312114308436169D1
:100AE0000843218B01F400710843E1690843216A3E
:100AF0000843A16A084321680860A069042101EA4B
:100B00001040616A0843216848602068C16921F487
:100B10000061C1616565012084F85100002070BD4D
:100B200010B586B0044614216846FFF781FB1449CE
:100B30002068884221D113480021026842F4804293
:100B40000260006800F4804005900E48103802688A
:100B500042F002020260006800F0020005904FF4CB
:100B6000604000900220CDE90101032003900520A0
:100B7000049069460448FFF7ABFB06B010BD0000C7
:100B80000038004040380240000402402DE9F84F90
:100B9000044690F8500000270A9E1D4692468B4658
:100BA0004FF0010901280ED0012084F85000FFF712
:100BB0006DFC804694F85100616801280CD0B1F5B5
:100BC000827F07D102E00220BDE8F88FA16809B951
:100BD000042801D00227C2E0BBF1000F27D0BAF1F0
:100BE000000F24D01DB394F85100042802D0052032
:100BF00084F8510000206065C4F838A0E587A58717
:100C0000C4F830B0E586A586206460642068016879
:100C1000490603D4016841F040010160E068B0F585
:100C2000006F606805D0E8B3012D46D07FE0012752
:100C300095E008B1012D39D1206B21680088C8608A
:100C4000206B801C2063E08E401EE0862EE0206832
:100C5000816889070FD5E18E69B1B9F1010F0AD119
:100C6000216B0988C160206B801C2063E08E401ED0
:100C7000E0864FF0000920688168C9070CD0E18F39
:100C800051B1C068A16B0880A06B801CA063E08F8D
:100C9000401EE0874FF00109FFF7F8FBA0EB0800CA
:100CA000B04200E009E001D3701C50D1E08E002872
:100CB000CDD1E08F0028CAD13FE0206B21680078B9
:100CC0000873206B401C2063E08E401EE0862EE0FF
:100CD0002068816889070FD5E18E69B1B9F1010FEC
:100CE0000AD1216B09780173206B401C2063E08ED0
:100CF000401EE0864FF0000920688168C9070CD0CB
:100D0000E18F51B1C068A16B0870A06B401CA0635B
:100D1000E08F401EE0874FF00109FFF7B7FBA0EB23
:100D20000800B04202D3701C01D010E07EB1E08E0A
:100D30000028CDD1E08F0028CAD142463146204656
:100D400000F00BF928B101272020606507E0032798
:100D500005E0A06818B92068C1688068009001208B
:100D600084F85100002084F8500038462CE710B574
:100D7000401EB0F1807F01D3012010BD4FF0E02470
:100D800060610F21601700F0FEFA0020A0610720CB
:100D90002061002010BD70B5040004D094F8390023
:100DA000002510B106E0012070BD84F838502046BF
:100DB00000F022F8242084F839002068C16821F46A
:100DC0000051C160204600F087F92068016921F4D4
:100DD000904101612068416921F02A014161206848
:100DE000C16841F40051C160E563202084F83900F6
:100DF00084F83A00002070BD10B586B00446142176
:100E00006846FFF715FA13492068884220D1124836
:100E1000016841F400310160006800F40030059081
:100E20000D481038016841F0010101600068694611
:100E300000F0010005900C2000900220019001209C
:100E4000029003200390072004900448FFF740FA23
:100E500006B010BD0044004040380240000002408F
:100E6000FEE700002DE9F04387B014216846FFF744
:100E7000DFF927480024016841F0010101600168A1
:100E800001F001010591016841F010010160016864
:100E900001F010010591016841F002010160016853
:100EA00001F002010591016841F00801016000684C
:100EB000DFF8608000F008004FF4804605900022C3
:100EC00031464046FFF7DCFADFF84C90B7100022BD
:100ED00039464846FFF7D4FAB01101258DE83100B4
:100EE00069464046FFF7F4F90096CDE9015469469A
:100EF00040460394FFF7ECF90097CDE901546946A9
:100F000048460394FFF7E4F907B0BDE8F08300001A
:100F10003038024000100240000C02400C480B49DF
:100F20004FF4007201604FF48271416000218160D2
:100F3000C1600161C0E905121022C2618022C0E9CE
:100F4000082181620A21C162FFF7AABD0038004072
:100F500010000020FEE77047704738B50B4600923E
:100F600004460022802100F008F8002804D0606DBB
:100F700040F020006065032038BD2DE9F0411D469A
:100F800017460E460446DDF8188008E0681C06D0B7
:100F9000FFF77CFAA0EB0800A8420BD255B12068FD
:100FA000806836EA000030D00020B842EED1002040
:100FB000BDE8F0812068416821F0E001416060688F
:100FC000B0F5827F0BD1A068B0F5004F02D0B0F52C
:100FD000806F04D12068016821F040010160A06A9F
:100FE000B0F5005F09D12068016821F4005101606B
:100FF0002068016841F400510160012084F851002B
:10100000002084F850000320D2E70120CDE770478C
:10101000FFF742BA10B592B030216846FFF708F9E1
:1010200014210CA8FFF704F914480024016841F0CA
:1010300080510160006800F08050119010480168F4
:1010400041F4804101600068069400F480401190F2
:101050000220009001200390102004906846FFF7C2
:1010600091FB0F20CDE90C040E940F9400210CA8E5
:101070001094FFF79DFA12B010BD000040380240F6
:10108000007000401048016841F4700101600F4891
:10109000016841F0010101600C4A00210832116031
:1010A00002680B4B1A400260031D0A4A1A6002686C
:1010B00022F48022026005480C3001600249580683
:1010C000803908607047000088ED00E00038024079
:1010D000FFFFF6FE103000242DE9F04104460068C1
:1010E0000169E26821F44051114301612169A0685E
:1010F000E26908436169114322680843D16849F2F3
:101100000C6399430143D16020684169A26921F4CD
:10111000407111434161E2696425B2F5004F97487F
:10112000974922684FF032083FD08A4201D082426C
:101130007CD1FFF7E5FA00EBC00101EB001061681C
:101140008900B0FBF1F6FFF7DBFA00EBC00101EB21
:10115000001061688900B0FBF1F0B0FBF5F06FF0B2
:101160001801484306EB800108EB0110B0FBF5F0D5
:1011700000F0F006FFF7C4FA00EBC00101EB00102D
:1011800061688900B0FBF1F0B0FBF5F006EB0016EA
:10119000FFF7B6FA00EBC00101EB001061688900AF
:1011A000B0FBF1F7FFF7ACFAD2E08A4201D08242FD
:1011B0003DD1FFF7A5FA00EBC00101EB001061681B
:1011C0004900B0FBF1F0B0FBF5F00601FFF798FA2B
:1011D00000EBC00101EB001061684900B0FBF1F7C2
:1011E000FFF78EFA00EBC00101EB001061684900C7
:1011F000B0FBF1F0B0FBF5F06FF01801484307EBDE
:10120000800108EBC100B0FBF5F000F0F80006EB40
:101210004006FFF775FA00EBC00101EB00106168B2
:101220004900B0FBF1F7FFF76BFA3CE055E0FFF740
:1012300057FA00EBC00101EB001061684900B0FBF8
:10124000F1F0B0FBF5F00601FFF74AFA00EBC00140
:1012500001EB001061684900B0FBF1F7FFF740FABD
:1012600000EBC00101EB001061684900B0FBF1F038
:10127000B0FBF5F06FF01801484307EB800108EB75
:10128000C100B0FBF5F000F0F80006EB4006FFF7F8
:1012900027FA00EBC00101EB001061684900B0FBC8
:1012A000F1F7FFF71DFA00EBC00101EB00106168D8
:1012B0004900B0FBF1F0B0FBF5F06FF018014843C6
:1012C00007EB800108EBC100B0FBF5F000F0070070
:1012D000216830448860BDE8F081FFF701FA00EB37
:1012E000C00101EB001061688900B0FBF1F6FFF767
:1012F000F7F900EBC00101EB001061688900B0FB59
:10130000F1F0B0FBF5F06FF01801484306EB8001F7
:1013100008EB0110B0FBF5F000F0F006FFF7E0F984
:1013200000EBC00101EB001061688900B0FBF1F037
:10133000B0FBF5F006EB0016FFF7D2F900EBC001A9
:1013400001EB001061688900B0FBF1F7FFF7C8F905
:1013500000EBC00101EB001061688900B0FBF1F007
:10136000B0FBF5F06FF01801484307EB800108EB84
:101370000110B0FBF5F000F00F00A9E700140140E8
:1013800000100140FEE70907090E002804DB00F108
:10139000E02080F80014704700F00F0000F1E0201A
:1013A00080F8141D704702E008C8121F08C1002A07
:1013B000FAD170477047002001E001C1121F002AD6
:1013C000FBD17047B4B0FFF76FF8FFF723FEFFF7CC
:1013D00049FDFFF7A3FD1C481A490C2201604FF498
:1013E000E131416000218160C160C0E90412816186
:1013F000C161FFF7D0FC0122144D94032146284619
:10140000FFF73EF84FF4FA60FEF750FF0022214646
:101410002846FFF735F8012211030D48FFF730F891
:101420000CA00323006833900A200090064801AA0C
:1014300033A95838FFF7AAFB012221462846FFF7B7
:101440001FF8FEE700440040680000200010024042
:10145000000C024002010200000000000000000039
:10146000010203040607080900000000010203044A
:10147000901400080000002010000000A6130008CF
:10148000A01400081000002098040000B613000803
:101490000100000010000000000000000024F40023
:040000050800018965
:00000001FF
