:020000040800F2
:10000000900400209D010008B30D00083F0D00087A
:10001000B10D0008CD020008B11100080000000079
:10002000000000000000000000000000D70D0008E4
:10003000CF02000800000000D50D0008D90D00080F
:10004000B7010008B7010008B7010008B7010008B0
:10005000B7010008B7010008B7010008B7010008A0
:10006000B7010008B7010008B7010008B701000890
:10007000B7010008B7010008B7010008B701000880
:10008000B7010008B7010008B7010008B701000870
:10009000B7010008B7010008B7010008B701000860
:1000A000B7010008B7010008B7010008B701000850
:1000B000B7010008B7010008B7010008B701000840
:1000C000B7010008B7010008B7010008B701000830
:1000D000B7010008B7010008B7010008B701000820
:1000E000B7010008B7010008B7010008B701000810
:1000F000B7010008B7010008B7010008B701000800
:10010000B7010008B7010008B7010008B7010008EF
:10011000B7010008B7010008B7010008B7010008DF
:10012000B7010008B7010008B7010008B7010008CF
:10013000B7010008B7010008B7010008B7010008BF
:10014000B7010008B7010008B7010008B7010008AF
:10015000B7010008B7010008B7010008B70100089F
:10016000B7010008B7010008B7010008B70100088F
:10017000B7010008B7010008B7010008000000003F
:10018000B7010008B7010008DFF80CD000F08CF8C8
:1001900000480047D111000890040020064880471D
:1001A00006480047FEE7FEE7FEE7FEE7FEE7FEE75C
:1001B000FEE7FEE7FEE7FEE74D0E000889010008B6
:1001C0002DE9F05F0546002092469B46884606468C
:1001D000814640241BE0284641464746224600F01F
:1001E00053F853465A46C01A914110D31146184647
:1001F000224600F03AF82D1A67EB01084F462246D6
:100200000120002100F031F817EB00094E41201EBB
:10021000A4F10104DFDC484631462A464346BDE8E6
:10022000F09F40EA01039B0703D009E008C9121FB1
:1002300008C0042AFAD203E011F8013B00F8013BA0
:10024000521EF9D27047D2B201E000F8012B491ECC
:10025000FBD270470022F6E710B513460A46044663
:100260001946FFF7F0FF204610BD202A04DB203A94
:1002700000FA02F1002070479140C2F1200320FAF9
:1002800003F3194390407047202A04DB203A21FAF7
:1002900002F00021704721FA02F3D040C2F120029F
:1002A0009140084319467047064C074D06E0E06848
:1002B00040F0010394E8070098471034AC42F6D3AD
:1002C000FFF766FF7C1200089C120008FEE77047EB
:1002D0002DE9F84FDFF87CB100224FF001084FF014
:1002E000030A4FF00F090BF1040E00BF0B6808FA68
:1002F00002F42340A3426ED14D68022D01D0122D8D
:100300000ED1D50800EB850CDCF820505607F70E0F
:1003100009FA07F6B5430E69BE402E43CCF82060BB
:10032000066855000F790AFA05FC07F0030726EA6C
:100330000C06AF40374307604E68012E05D0022EF1
:1003400003D0112E01D0122E0ED18668CF6826EA76
:100350000C06AF40374387604668A6430C79C4F368
:100360000014944034434460C6688C6826EA0C0646
:10037000AC403443C4604C68E40065D5364C256815
:1003800045F480452560246822F0030504F4804488
:100390000094324C2E19D6F8084895072F0F09FA09
:1003A00007F5AC432E4DA84201D1002524E02D4D88
:1003B000A84201D101251FE02B4DA84201D1022501
:1003C0001AE02A4DA84201D1032515E0284DA84284
:1003D00002D1042510E037E0264DA84201D10525C1
:1003E0000AE0254DA84201D1062505E0234DA8428B
:1003F00001D1072500E00825BD402543C6F808586F
:10040000DBF800405D464E689C43F60300D51C4374
:100410002C60DEF8004075464E689C43B60300D55C
:100420001C432C600B4D08352C684E689C43F6022B
:1004300000D51C432C60074D0C352C684E689C433E
:10044000B60200D51C432C60521C102AFFF44EAF9C
:10045000BDE8F88F003C01404438024000300140C4
:10046000000002400004024000080240000C02406C
:10047000001002400014024000180240001C02401C
:100480000AB1816170470904FBE7000001488068F8
:100490007047000000000020024881680278114483
:1004A00081607047000000200B4810B5016841F4DE
:1004B00000710160016841F480610160016841F4EC
:1004C00080710160032000F061F8002000F006F860
:1004D00000F024F8002010BD003C024070B50D4D26
:1004E00004464FF47A712878B1FBF0F00A490968A4
:1004F000B1FBF0F000F0D4FA48B9102C07D200227A
:100500002146501E00F022F800206C6070BD0120D2
:1005100070BD0000000000200C0000200A4808B553
:10052000016841F480410160006800F4804000905F
:100530000548001F016841F080510160006800F02B
:100540008050009008BD000044380240F0B40E4BCB
:100550001B680C46C3F30223C3F10705042D00D921
:100560000425191D072901D2002300E0DB1E012606
:1005700006FA05F1491E214099409E40761E16401C
:100580003143F0BC00F016BC0CED00E0064900F071
:10059000070208684FF6FF03184040EA0220034AAA
:1005A00010430860704700000CED00E00000FA0501
:1005B0002DE9F0470E46050065D0DFF81481D8F824
:1005C0000000F7B200F00F00B04207D288F80070C8
:1005D000D8F8000000F00F00B04254D128683D4C1C
:1005E000810712D5400703D5206840F4E050206011
:1005F0002878000703D5206840F460402060206818
:10060000A96820F0F000084320602878C0072DD0AA
:10061000304968680839012812D0022813D003280D
:1006200011D00968890700292DDA216821F003011A
:1006300001432160FFF72AFF814641F2883A0EE02C
:1006400009688903EFE709688901ECE7FFF71EFFF6
:10065000A0EB0901514502D90320BDE8F0872068CD
:10066000696800F00C00B0EB810FEFD1D8F80010F2
:10067000404601F00F01B14207D90770006800F051
:100680000F00B04201D00120E7E72878400705D5E8
:100690002068E96820F4E0500843206028780007CB
:1006A00006D52068296920F4604040EAC100206036
:1006B00000F036F82168084AC1F30311515CC840C4
:1006C000064908600020FFF709FF0020C5E7000089
:1006D000003C024008380240641200080C00002070
:1006E0000448054900680968044AC1F38221515C45
:1006F000C84070470C0000200838024074120008FF
:100700000448054900680968044AC1F34231515C54
:10071000C84070470C0000200838024074120008DE
:10072000154810B5006810F00C02144813D0144995
:10073000042A0FD0082A0ED10F4C241F22682368E8
:1007400002F03F025B0207D52068C0F38810A0FBCF
:10075000010106E0084610BD2168C1F38811A1FB24
:1007600000010023FFF72CFD2168C1F30141491C62
:100770004900B0FBF1F010BD083802400024F4003D
:1007800040787D012DE9F84F050076D02878DFF814
:10079000F8B2BE4CC00749D0DBF800105846C1F390
:1007A0008101012908D00068C0F3810002280AD124
:1007B000201D0068400206D52068800336D5686891
:1007C0000028E2D032E06868B0F5803F10D0B0F584
:1007D000A02F206810D020F480302060206820F402
:1007E000802020606868A0B1FFF750FE06460CE04C
:1007F000206840F48030F4E740F480202060F7E780
:10080000FFF744FE801B642873D820688003F7D567
:100810000CE0FFF73BFE064605E000BFFFF736FEA3
:10082000801B6428F0D820688003F7D42878DFF88C
:10083000608280074FF000093ED5DBF80010584673
:1008400011F00C0F09D00068C0F3810002280BD111
:100850008D48001F0068400206D42068800715D527
:10086000E868012809D111E0E868B8B10120C8F8AA
:100870000000FFF70BFE064605E002E1FFF706FE6B
:10088000801B0228C0D820688007F7D52068296916
:1008900020F0F80040EAC10020600DE0C8F80090A8
:1008A000FFF7F4FD064604E0FFF7F0FD801B022889
:1008B0001FD820688007F7D42878000722D5724E09
:1008C000744869696C3671B101210160FFF7DEFD82
:1008D000074604E0FFF7DAFDC01B022809D830689C
:1008E0008007F7D50EE0C0F80090FFF7CFFD074670
:1008F00005E083E0FFF7CAFDC01B02287ED8306800
:100900008007F7D42878400768D5DFF87CA1002756
:100910000AF1380ADAF80000C0000BD4DAF8001047
:1009200041F08051CAF80010DAF80000012700F009
:1009300080500090584E3068C00510D4306840F4A4
:1009400080703060FFF7A2FD009005E0FFF79EFD8C
:100950000099401A022851D83068C005F6D54A4E91
:10096000A868683601280FD00528306810D020F01C
:1009700001003060306820F004003060A868B8B131
:10098000FFF784FD00900FE0306840F00100F4E7CD
:1009900040F004003060F7E7FFF778FD0099411A56
:1009A00041F28830814264D830688007F4D50EE087
:1009B000FFF76CFD009007E0FFF768FD0099411A12
:1009C00041F28830814254D830688007F4D42FB186
:1009D000DAF8001021F08051CAF80010A869C0B3FD
:1009E000DBF80010C1F3810102294AD002284846F1
:1009F00007D0C8F86000FFF749FD00E039E0054680
:100A00003AE04746C8F86000FFF740FD064604E0BC
:100A1000FFF73CFD801B02282BD820688001F7D40B
:100A2000D5E907010843A96A1C4A490802EB0141BC
:100A30006A6A41EA8211084395F82C1040EA016184
:100A40001148001F016001203866FFF71FFD0546B1
:100A500005E014E0FFF71AFD401B022809D82068C2
:100A60008001F7D50BE000BFFFF710FD401B022807
:100A700002D90320BDE8F88F20688001F4D400205B
:100A8000F8E70120F6E7000008380240003802408D
:100A900000004742800E4742007000400000FFFF08
:100AA00010B5401EB0F1807F01D3012010BD4FF082
:100AB000E02460610F21601700F07CF90020A06144
:100AC00007202061002010BD70B5040004D094F808
:100AD0003900002510B106E0012070BD84F83850BF
:100AE000204600F023F8242084F839002068C168EB
:100AF00021F40051C160204600F0D2F9206801695C
:100B000021F4904101612068416921F02A0141618D
:100B10002068C16841F40051C160E563202084F879
:100B2000390084F83A00002070BD0000F0B587B0AD
:100B3000044614216846FFF78DFB20481E4F2668A7
:100B40001E4910380222012303240725BE4215D175
:100B50000E6846F400360E60096801F40031059114
:100B6000016841F0010101600068694600F0010080
:100B700005900C208DE83D00114818E0114FBE4251
:100B800017D10E6846F480260E60096801F48021B2
:100B90000591016841F0020101600068694600F0BA
:100BA000020005904FF440608DE83D000648FFF7D5
:100BB0008FFB07B0F0BD0000004400404038024009
:100BC0000000024000480040000402402DE9F843C4
:100BD000044690F83A00994616460D4620284FD113
:100BE00095B18EB194F83800012849D0012084F8DD
:100BF00038000027E763222084F83A00FFF746FC1C
:100C0000A6858046E68531E00120BDE8F883E08DC9
:100C1000401EE085A0684346B0F5805F4FF00002BB
:100C20004FF020012046CDF8009004D000F08EFA5D
:100C300098B10320E9E700F089FA0028F9D120698A
:100C400000282068406803D0C1B225F8011B0DE0E0
:100C5000C0F3080125F8021B08E02069002820687D
:100C6000406801D000F07F0005F8010BE08D0028FE
:100C7000CDD1202084F83A0084F838700020C4E7F1
:100C80000220C2E72DE9F843044690F839001F46D8
:100C900016460D46202850D1A5B19EB194F83800D3
:100CA00001284AD0012084F838004FF00008C4F829
:100CB0003C80212084F83900FFF7E8FBA6848146B8
:100CC000E68426E00120BDE8F883E08C401EE08445
:100CD000A0684B46B0F5805F4FF000024FF08001F6
:100CE0002046009703D000F031FAE8B90DE000F09B
:100CF0002DFAC8B928882168C0F308004860206927
:100D000008B16D1C05E0AD1C03E0216815F8010B6E
:100D10004860E08C0028D8D14B4600224021204674
:100D2000009700F013FA08B10320CCE7202084F8E4
:100D3000390084F838800020C5E70220C3E7FEE7C9
:100D400070B586B014216846FFF784FA164800246F
:100D5000016841F001010160016801F001010591A4
:100D6000016841F002010160016801F00201059192
:100D7000016841F00801016000680C4E00F00800B5
:100D80004FF440550590002229463046FFF778FB86
:100D900001200095CDE90104694630460394FFF730
:100DA00097FA06B070BD000030380240000C0240D7
:100DB000FEE770470907090E002806DA00F00F0069
:100DC00000F1E02080F8141D704700F1E02080F869
:100DD0000014704770477047FFF75EBB10B592B0C4
:100DE00030216846FFF736FA14210CA8FFF732FAD3
:100DF00014480024016841F080510160006800F04F
:100E0000805011901048016841F4804101600068F1
:100E1000069400F48040119002200090012003907D
:100E2000102004906846FFF7ADFC0F20CDE90C04BC
:100E30000E940F9400210CA81094FFF7B9FB12B088
:100E400010BD0000403802400070004010480168AA
:100E500041F4700101600F48016841F00101016037
:100E60000C4A00210832116002680B4B1A400260E4
:100E7000031D0A4A1A60026822F4802202600548B3
:100E80000C30016002495806803908607047000044
:100E900088ED00E000380240FFFFF6FE103000242D
:100EA0002DE9F04104460068016921F44052E168EF
:100EB000114301612168C86849F20C6290432369BB
:100EC000A268E5691A4363692B431A430243CA6067
:100ED0002168486920F44072A06910434861E169C3
:100EE0006425B1F5004F9748974A21684FF03208C2
:100EF0003FD0914201D081427CD1FFF701FC00EB51
:100F0000C00101EB001061688900B0FBF1F6FFF74A
:100F1000F7FB00EBC00101EB001061688900B0FB3A
:100F2000F1F0B0FBF5F06FF01801484306EB8001DB
:100F300008EB0110B0FBF5F000F0F006FFF7E0FB66
:100F400000EBC00101EB001061688900B0FBF1F01B
:100F5000B0FBF5F006EB0016FFF7D2FB00EBC0018B
:100F600001EB001061688900B0FBF1F7FFF7C8FBE7
:100F7000D2E0914201D081423DD1FFF7C1FB00EBAD
:100F8000C00101EB001061684900B0FBF1F0B0FB5B
:100F9000F5F00601FFF7B4FB00EBC00101EB001018
:100FA00061684900B0FBF1F7FFF7AAFB00EBC00155
:100FB00001EB001061684900B0FBF1F0B0FBF5F007
:100FC0006FF01801484307EB800108EBC100B0FB4C
:100FD000F5F000F0F80006EB4006FFF791FB00EBA0
:100FE000C00101EB001061684900B0FBF1F7FFF7A9
:100FF00087FB3CE055E0FFF773FB00EBC00101EB22
:10100000001061684900B0FBF1F0B0FBF5F006019B
:10101000FFF766FB00EBC00101EB001061684900BF
:10102000B0FBF1F7FFF75CFB00EBC00101EB001038
:1010300061684900B0FBF1F0B0FBF5F06FF018010A
:10104000484307EB800108EBC100B0FBF5F000F06E
:10105000F80006EB4006FFF743FB00EBC00101EB95
:10106000001061684900B0FBF1F7FFF739FB00EBB6
:10107000C00101EB001061684900B0FBF1F0B0FB6A
:10108000F5F06FF01801484307EB800108EBC10051
:10109000B0FBF5F000F00700216830448860BDE83F
:1010A000F081FFF71DFB00EBC00101EB0010616850
:1010B0008900B0FBF1F6FFF713FB00EBC00101EB79
:1010C000001061688900B0FBF1F0B0FBF5F06FF043
:1010D0001801484306EB800108EB0110B0FBF5F066
:1010E00000F0F006FFF7FCFA00EBC00101EB001086
:1010F00061688900B0FBF1F0B0FBF5F006EB00167B
:10110000FFF7EEFA00EBC00101EB00106168890007
:10111000B0FBF1F7FFF7E4FA00EBC00101EB0010C0
:1011200061688900B0FBF1F0B0FBF5F06FF01801D9
:10113000484307EB800108EB0110B0FBF5F000F02D
:101140000F00A9E700140140001001402DE9F04113
:10115000984617460E460446069D1DE0681C1BD0A7
:101160002DB1FFF793F9A0EB0800A84214D920682D
:10117000C16821F4D071C1602068416921F001018A
:101180004161202084F8390084F83A00002084F876
:1011900038000320BDE8F0812068006836EA0000CE
:1011A00004D00020B842D9D00020F3E70120F9E7AD
:1011B000FEE702E008C8121F08C1002AFAD17047F2
:1011C0007047002001E001C1121F002AFBD17047C7
:1011D0008EB018221AA108A8FFF723F8FFF764F9C8
:1011E000FFF7FCFDFFF7ACFD1C481B494FF4E13550
:1011F00000240160C0E901540C26C460C0E9044623
:101200008461C461FFF760FC1448154940300160F7
:10121000C0E90154C460C0E904468461C461FFF7B9
:1012200053FC4FF47A742346042269460B48FFF7B7
:10123000CDFC0A231E2269460848FFF723FDF2E78A
:101240004465627574205472616E736D697373695D
:101250006F6E203A200A0000004400401000002079
:1012600000480040000000000000000001020304EC
:101270000607080900000000010203049C12000890
:101280000000002010000000B2110008AC1200089D
:101290001000002080040000C211000801000000BE
:0C12A00010000000000000000024F4001A
:040000050800018965
:00000001FF
